:100000000C94CD000C94F5000C94F5000C94F500C4
:100010000C94F5000C94F5000C94F5000C94F5008C
:100020000C94F5000C94F5000C943F040C94AE0471
:100030000C94F5000C94F5000C94F5000C94F5006C
:100040000C94F5000C94F5000C94F5000C94F5005C
:100050000C94F5000C94F5000C94F5000C94E0065B
:100060000C94F5000C94F5000C94F5000C94F5003C
:100070000C94F5000C94F5000C94F5000C94F5002C
:100080000C94F5000C94F5000C94F5000C94F5001C
:100090000C94F5000C94F5000C94F5000C94F5000C
:1000A0000C94F5000C94F5000C94F500000000028F
:1000B00000090F0000030401000C00000000000014
:1000C0000000000000000000000000080B00020219
:1000D00002000009040000010202000005240010D3
:1000E000010524010101042402060524060001077C
:1000F00005810310004009040100020A0000000706
:1001000005020240000007058302400000040309C5
:100110000412010002EF020140412341800001016D
:1001200002030141726475696E6F204C4C430041BB
:10013000726475696E6F2059756E000000000025AD
:100140000028002B002E00310000000000240027B2
:10015000002A002D003000040404040403040502F6
:100160000202020403020202020606060606060452
:10017000040202020404040802011040804010201E
:10018000408040800802040180402010020110805D
:100190001020404020002A07D10811241FBECFEFB5
:1001A000DAE0DEBFCDBF21E0AEE7B1E001C01D92D5
:1001B000A73FB207E1F711E0A0E0B1E0EEE3F6E11E
:1001C00002C005900D92AE37B107D9F710E0CCEC24
:1001D000D0E004C02197FE010E941109CB3CD10759
:1001E000C9F70E9478070C94120B0C94000090E061
:1001F000FC01EA58FE4F2491895A9E4FFC018491DC
:10020000882399F090E0880F991FFC01E75BFE4F6F
:10021000A591B491FC01E55CFE4F859194918FB757
:10022000F894EC91E22BEC938FBF0895FC01809140
:100230009C01882311F13FB7F89482E08093E90094
:100240002091F200822F90E01816190614F481E034
:1002500090E0882339F0289844E640939B01409130
:10026000F1004083222339F02091F200211103C0D4
:100270002BE62093E8003FBF08958FEF9FEF08958E
:100280002FB7F89483E08093E9009091E800892FDC
:10029000807295FF04C09091F20080E4891B2FBF0B
:1002A00008958091930181110DC082E080938F01A8
:1002B00084E080939001109292011092910181E06C
:1002C000809393018FE891E00895409189015091C6
:1002D0008A01209187013091880142175307B4F4B5
:1002E0009091E8009570E1F39091E80092FD19C0BB
:1002F0008093F1008091890190918A0101968F731A
:100300009927892B19F48EEF8093E8008091890159
:1003100090918A01019690938A018093890181E0EE
:10032000089580E00895EF92FF920F931F93CF936B
:10033000DF93F82E192FE62E042F81E0860F880F09
:100340000E94650183E00E946501CF2DD12FEC0E44
:10035000FD2EF11CCE15DF05B9F007FF13C0FE011D
:1003600084910E946501182F80E00E94650181231D
:1003700021968111EFCFDF91CF911F910F91FF90C7
:10038000EF9008958881EDCF81E0F5CFDF92EF9275
:10039000FF920F931F93CF93DF93D82E8A01EB0127
:1003A0007B01E40EF51ECE15DF0559F0D7FE12C015
:1003B000FE0184910E94650121968111F4CF0FEF17
:1003C0001FEFC801DF91CF911F910F91FF90EF9028
:1003D000DF9008958881EECF0F931F93CF93DF9323
:1003E0001F92CDB7DEB782E0898342E450E06BEC28
:1003F00070E080E80E94C6010E945101DC01129663
:100400000D911C910115110589F0D801ED91FC9118
:100410000280F381E02DBE016F5F7F4FC801099517
:1004200097FD04C0F80100851185ECCF89810F90FC
:10043000DF91CF911F910F910895615030F020917D
:10044000F100FC0120830196F8CF289884E6809380
:100450009B010895CF93DF931F92CDB7DEB76983D9
:10046000DC01ED91FC910280F381E02D41E050E050
:10047000BE016F5F7F4F09950F90DF91CF91089577
:1004800083E08093E9008091F200882319F08AE3E9
:100490008093E80008950E94400190E00895CF9372
:1004A000DF931F92CDB7DEB7FC018485958597FD5C
:1004B00008C02FEF3FEF358724870F90DF91CF9152
:1004C0000895CE0101960E941601019719F48981C1
:1004D00090E0F3CF8FEF9FEFF0CF0F931F93CF9369
:1004E000DF931F92CDB7DEB78C01FC018485958523
:1004F00097FF0BC0CE0101960E941601019771F47F
:10050000898190E0F80195878487F8018485958535
:100510000F90DF91CF911F910F9108958FEF9FEF73
:10052000F1CFFC018485958597FD0BC09FB7F894AA
:1005300082E08093E9008091F2009FBF90E00196F5
:1005400008959FB7F89482E08093E9008091F200CB
:100550009FBF90E00895282F30E0F901E455FF4F48
:100560009491F901EA58FE4F8491295A3E4FF901BE
:100570002491222309F430C09923E9F091509F304F
:10058000D0F4E92FF0E0E953FD4F0C941109F50286
:10059000F902D602ED02F102DB02DB02DB02FC0211
:1005A000020306030A031003DB0214039091800088
:1005B0009F7790938000E22FF0E0EE0FFF1FE55C45
:1005C000FE4FA591B4919FB7F894EC91611132C0A0
:1005D00080958E238C939FBF0895909180009F7D7E
:1005E000E8CF90918000977FE4CF94B59F7794BD3A
:1005F000E2CF94B59F7DFBCF909190009F77909331
:100600009000D9CF909190009F7DF9CF909190006C
:10061000977FF5CF9091C0009F779093C000CBCF8C
:100620009091C0009F7DF9CF9091C200977F9093E9
:10063000C200C1CF8E2BCECF3FB7F89480918301FB
:1006400090918401A0918501B091860126B5A89B67
:1006500005C02F3F19F00196A11DB11D3FBFBA2F54
:10066000A92F982F8827BC01CD01620F711D811D14
:10067000911D42E0660F771F881F991F4A95D1F799
:1006800008958F929F92AF92BF92CF92DF92EF9296
:10069000FF924B015C010E941C036B017C010E94D4
:1006A0001C036C197D098E099F09683E7340810502
:1006B0009105A8F321E0821A9108A108B10888EEFB
:1006C000C80E83E0D81EE11CF11C81149104A10422
:1006D000B10429F7FF90EF90DF90CF90BF90AF90DB
:1006E0009F908F9008958F929F92AF92BF92CF92DA
:1006F000DF92EF92FF920F931F93CF93DF936C01E2
:100700007B018A0180910B01882309F45CC08091F0
:100710009C01882309F457C080918D0180FF05C09A
:100720008091E00082608093E000E801B12C8AEFC4
:10073000A82E93E0892E2AE3922E209711F4BB2055
:10074000D9F10E94400181110AC0AA94AA20D9F1CE
:1007500061E070E080E090E00E944103EECF8C17F2
:100760001D0611F00CF08C2F9FB7F8948092E900D1
:100770002091E80025FD02C09FBFDFCF282F30E089
:10078000C21BD30BF701815020F041914093F1003F
:10079000FACFE20EF31EBB2021F09092E800B12CBC
:1007A000EBCF8091E80085FDE7CF9092E800BB2475
:1007B000B394209709F3F3CF5D9884E680938C017E
:1007C000101611063CF081E090E0F60193838283DD
:1007D00010E000E0C801DF91CF911F910F91FF90D1
:1007E000EF90DF90CF90BF90AF909F908F90089543
:1007F0002091F1013091F201232B39F421E0FC0129
:100800008081882361F020E00AC0BC018091ED0165
:100810009091EE010E94020B21E0892BA1F7822F1B
:100820000895CF93DF93EC018091ED019091EE015B
:10083000009759F02091EF013091F0012C173D07FE
:1008400020F081E0DF91CF910895BE016F5F7F4F6F
:100850000E943C0A009789F09093EE018093ED018D
:10086000D093F001C093EF012091F1013091F2019A
:10087000232B39F7FC011082E4CF80E0E3CF1F92F5
:100880000F920FB60F9211248F939F938091E100E6
:100890009091E100937F9093E10083FF0FC010924D
:1008A000E90091E09093EB001092EC0092E39093BA
:1008B000ED0010929C0198E09093F00082FF22C01E
:1008C00093E09093E9009091F200992319F09AE354
:1008D0009093E80090918C01992341F090918C01C4
:1008E000915090938C01911101C05D9A90919B0160
:1008F000992341F090919B01915090939B0191110C
:1009000001C0289A84FF18C08091E2008E7E816029
:100910008093E2008091E1008F7E8093E1008091DE
:100920008D018E7E806180938D019F918F910F90BC
:100930000FBE0F901F90189580FFF7CF8091E200B7
:100940008E7E80618093E2008091E1008E7E8093B4
:10095000E10080918D018E7E8160E5CF1F920F9224
:100960000FB60F921124CF92DF92EF92FF920F9366
:100970001F932F933F934F935F936F937F938F9327
:100980009F93AF93BF93EF93FF93CF93DF93CDB735
:10099000DEB76C97DEBFCDBF1092E9008091E80012
:1009A00083FF25C068E0CE0145960E941D0282EFBC
:1009B0008093E8008D8987FF39C09091E80090FF0F
:1009C000FCCF982F907609F034C19E894F89588DBD
:1009D0002F89F88C911131C0803861F580918E019A
:1009E0008093F1001092F1008EEF8093E8006C96F6
:1009F0000FB6F894DEBF0FBECDBFDF91CF91FF9150
:100A0000EF91BF91AF919F918F917F916F915F9186
:100A10004F913F912F911F910F91FF90EF90DF9099
:100A2000CF900F900FBE0F901F9018959EEF909350
:100A3000E800C7CF1092F100D5CF913059F4811161
:100A4000D3CF4130510581F680918E018D7F809307
:100A50008E01CACF933049F48111C6CF4130510580
:100A600019F680918E018260F2CF953041F4809129
:100A7000E80080FFFCCF20682093E300B5CF9630DC
:100A800009F0A9C00B8D1C8D22E01092E900109294
:100A90008A0110928901F2122EC0109288011092E0
:100AA00087010E94EC011F8299E09983FA8291E00C
:100AB0009E8390EA98879AEF9987209189013091D7
:100AC0008A01275F3F4F3C832B838D831092E9007F
:100AD00010928A0110928901109388010093870176
:100AE00049E050E0BE016F5F7F4F80E00E94C60189
:100AF0000E94EC0179CF10938801009387010E9436
:100B00005101DC0112960D911C910115110509F49A
:100B100051C1D801ED91FC910480F581E02DBE0119
:100B20006B5E7F4FC8010995009709F03EC1F8013F
:100B300000851185EACFF3E0FF120EC08F8988236C
:100B400009F440C0823061F440E86BE08FE291E04C
:100B50000E949301811148CF81E28093EB0047CF3F
:100B6000813029F440E86BE083E291E0F1CF8330FB
:100B700099F70E945101DC011296ED90FC908E01D4
:100B80000F5F1F4F6801E114F10479F0D701ED9177
:100B9000FC910680F781E02DB801C7010995080F87
:100BA000111DF701E084F184EECFD8011C92F6010B
:100BB00001900020E9F73197BF016C197D0940E0F1
:100BC000C601C6CF6DE071E0FB01449150E080E8C2
:100BD0000E94C60109CF973009F4BECF983021F4A6
:100BE00081E08093F10000CF993009F0FDCE837051
:100BF00009F0B2CFE3E1F1E081E031E096E3219149
:100C0000222371F08093E9003093EB00DF0111970C
:100C10002C912093EC009093ED008F5F873079F753
:100C20008EE78093EA001092EA008F8980939C01FE
:100C3000DBCE8B8D9C8D1092E90010928A01109270
:100C400089019093880180938701898D811192C0D9
:100C50008E899D89913A49F4813209F07DCF47E030
:100C600050E064E071E080E0B3CF913209F074CFDE
:100C7000833269F48F89988DB0E0A0E08093000101
:100C800090930101A0930201B0930301ADCE803295
:100C900069F48091E80082FFFCCF67E084E091E096
:100CA0000E941D028BEF8093E8009ECE823209F0F5
:100CB0009BCE8F8980930B01EEEFFFE78591949196
:100CC0008B3F9C4D51F1E0E0F8E080910401909160
:100CD0000501A0910601B0910701803B9440A10558
:100CE000B105F1F480910B0180FD1AC0EE3F8AE05E
:100CF000F80789F587E797E7918380838091600003
:100D000080938B0188E19BE00FB6F894A8958093BF
:100D100060000FBE9093600067CEEEEFFAE0D5CF93
:100D2000808191818737974709F05ECEA8958091A1
:100D3000600088618093600080918B0180936000E7
:100D4000EE3F2AE0F20789F08091FE0A9091FF0AB7
:100D50009183808349CE808191818737980751F2B2
:100D60009093FF0A8093FE0AC5CF1092FF0A10925B
:100D7000FE0A3ACE0E945101DC0112960D911C919F
:100D80000115110509F4E8CED801ED91FC9101900F
:100D9000F081E02DBE016B5E7F4FC8010995811186
:100DA00023CEF80100851185EBCF181619060CF437
:100DB0001BCED2CEF1E0FF12BECE61E171E004CFD6
:100DC0001F920F920FB60F9211242F933F938F9380
:100DD0009F93AF93BF9380917F0190918001A091E9
:100DE0008101B091820130917E0123E0230F2D37E4
:100DF00058F50196A11DB11D20937E0180937F01BE
:100E000090938001A0938101B0938201809183012E
:100E100090918401A0918501B09186010196A11D58
:100E2000B11D8093830190938401A0938501B093B9
:100E30008601BF91AF919F918F913F912F910F901C
:100E40000FBE0F901F90189526E8230F0296A11D44
:100E5000B11DD2CF1092A00110929F0188EE93E0B5
:100E6000A0E0B0E08093A1019093A201A093A30120
:100E7000B093A4018DE191E090939E0180939D0138
:100E80008FEF9FEF9093AA018093A9011092EE013A
:100E90001092ED011092F0011092EF011092F20108
:100EA0001092F10190E080E00E9411042091ED0188
:100EB0003091EE01811113C02115310519F0C901DE
:100EC0000E94B3091092EE011092ED011092F2010E
:100ED0001092F1011092F0011092EF01089510921A
:100EE000F2011092F1016DE271E0C9010C940B0B5B
:100EF000CF93DF9300D0CDB7DEB7789484B582600E
:100F000084BD84B5816084BD85B5826085BD85B5AD
:100F1000816085BD80916E00816080936E0010922B
:100F200081008091810082608093810080918100A6
:100F30008160809381008091800081608093800037
:100F400080919100826080939100809191008160F6
:100F500080939100809190008160809390008091B7
:100F6000C10084608093C1008091C1008260809341
:100F7000C1008091C10081608093C1008091C30055
:100F800081608093C3008091C00082608093C00024
:100F90008091C20081608093C20080917A00846059
:100FA00080937A0080917A00826080937A008091A9
:100FB0007A00816080937A0080917A0080688093C3
:100FC0007A0010929C0110928E0110928D018091F6
:100FD000D70081608093D70080EA8093D80089B5DC
:100FE000806189BD89B5826089BD09B400FEFDCFED
:100FF00061E070E080E090E00E9441038091D800C1
:101000008F7C80618093D8008091E000807F809306
:10101000E0008091E1008E7E8093E1008DE080937E
:10102000E200559A209A8FEF9FEF9093AA01809348
:10103000A90186E00E94F70085E00E94F70080E0A9
:10104000E82E80E0F82E8DE991E00E949102892B34
:1010500059F163E070E080E090E00E9441038DE987
:1010600091E00E944F0289831A820091F101109150
:10107000F2010F5F1F4FC8010E941104882319F36A
:101080002091ED013091EE018091F1019091F201FA
:10109000BE016F5F7F4F820F931F0E940B0B109357
:1010A000F2010093F101CFCF4091F1015091F20193
:1010B0004115510509F44EC06091ED017091EE01AA
:1010C0008DE991E00E94730342E050E06BE271E031
:1010D0008DE991E00E9473038EE291E00E94F80393
:1010E000882319F061E086E017C08CE391E00E944C
:1010F000F803882311F060E0F6CF8BE491E00E94C2
:10110000F80361E0811107C087E591E00E94F803D0
:10111000882339F160E085E00E94AB0290E080E036
:101120000E9411042091ED013091EE0181112FC038
:101130002115310519F0C9010E94B3091092EE0181
:101140001092ED011092F2011092F1011092F00153
:101150001092EF01E114F10409F475CF0E94000030
:1011600072CF84E691E00E94F803882329F061E0C1
:1011700085E00E94AB02B6CF80E791E00E94F803C1
:10118000882361F260E085E00E94AB02B4CF109248
:10119000F2011092F1016DE271E0C9010E940B0BA6
:1011A000D9CF8091ED019091EE01009711F00C9450
:1011B000B30908952F923F924F925F926F927F9260
:1011C0008F929F92AF92BF92CF92DF92EF92FF9257
:1011D0000F931F93CF93DF93CDB7DEB7CA1BDB0B03
:1011E0000FB6F894DEBF0FBECDBF09942A883988A8
:1011F00048885F846E847D848C849B84AA84B984AF
:10120000C884DF80EE80FD800C811B81AA81B981BA
:10121000CE0FD11D0FB6F894DEBF0FBECDBFED01CE
:101220000895EE0FFF1F0590F491E02D09940F93A0
:101230001F93CF93DF938230910510F482E090E00A
:10124000E091F501F091F60130E020E0B0E0A0E09F
:10125000309799F42115310509F44AC0281B390B40
:1012600024303105D8F58A819B816115710589F19A
:10127000FB0193838283FE0111C040815181028171
:10128000138148175907E0F04817590799F4109748
:1012900061F012960C93129713961C933296CF011D
:1012A000DF91CF911F910F9108950093F501109355
:1012B000F601F4CF2115310551F04217530738F0EC
:1012C000A901DB019A01BD01DF01F801C1CFEF01E6
:1012D000F9CF9093F6018093F501CDCFFE01E20F97
:1012E000F31F819391932250310939832883D7CFFB
:1012F0002091F3013091F401232B41F420910E0150
:1013000030910F013093F4012093F30120910C01EF
:1013100030910D012115310541F42DB73EB74091B3
:10132000100150911101241B350BE091F301F09154
:10133000F401E217F307A0F42E1B3F0B281739071F
:1013400078F0AC014E5F5F4F2417350748F04E0F21
:101350005F1F5093F4014093F301819391939FCFCA
:10136000F0E0E0E09CCFCF93DF930097E9F0FC0141
:10137000329713821282A091F501B091F601ED012E
:1013800030E020E01097A1F420813181820F931F7B
:101390002091F3013091F4012817390709F061C059
:1013A000F093F401E093F301DF91CF910895EA0106
:1013B000CE17DF07E8F54A815B819E014115510593
:1013C000B1F7E901FB83EA8349915991C40FD51F15
:1013D000EC17FD0761F4808191810296840F951FBF
:1013E000E90199838883828193819B838A83F0E0DA
:1013F000E0E012968D919C9113970097B9F52D918D
:101400003C911197CD010296820F931F2091F30119
:101410003091F4012817390739F6309751F51092B9
:10142000F6011092F501B093F401A093F301BCCF43
:10143000D383C28340815181840F951FC817D90778
:1014400061F44E5F5F4F88819981480F591F518326
:1014500040838A819B81938382832115310509F022
:10146000B0CFF093F601E093F5019ECFFD01DC01D2
:10147000C0CF13821282D7CFB0E0A0E0E2E4FAE05E
:101480000C94DC088C01009751F4CB010E941709E1
:101490008C01C801CDB7DEB7E0E10C94F808FC017F
:1014A000E60FF71F9C0122503109E217F30708F4F9
:1014B0009DC0D901CD91DC911197C617D70798F03F
:1014C000C530D10530F3CE0104978617970708F38E
:1014D000C61BD70B2297C193D1936D937C93CF01F9
:1014E0000E94B309D6CF5B01AC1ABD0A4C018C0E29
:1014F0009D1EA091F501B091F601512C412CF12CCB
:10150000E12C109731F58091F3019091F401881549
:10151000990509F05CC04616570608F058C080913E
:101520000C0190910D01009741F48DB79EB7409149
:10153000100150911101841B950BE817F90708F071
:1015400055C0F093F401E093F301F90171836083D6
:10155000A0CF8D919C91119712966C901297139633
:101560007C901397A815B90559F56C0142E0C40E9B
:10157000D11CCA14DB0420F1AC014A195B09DA0161
:101580001296159780F06282738251834083D9014D
:101590006D937C93E114F10471F0D7011396FC93E1
:1015A000EE93129776CF22968C0F9D1FF9019183AF
:1015B0008083F301EFCFF093F601E093F50169CF5B
:1015C0004816590608F42C017D01D3019ACFCB01AE
:1015D0000E9417097C01009749F0AE01B8010E94F2
:1015E000F90AC8010E94B309870153CF10E000E057
:1015F00050CFFB01DC0102C001900D9241505040E0
:10160000D8F70895FB01DC018D910190801901103C
:10161000D9F3990B0895FB01DC0101900D92002094
:10162000E1F7089510E0CCECD0E004C0FE010E9488
:0E16300011092196CD3CD107C9F7F894FFCFE0
:10163E00FFFFFFFF00E10000000000000000F701C7
:10164E00800000C18081000000000000002A0273AB
:10165E00034B02400291024F026D020D0A00747597
:10166E00726E206F6E206C69676874007475726E8E
:10167E00206F6666206C69676874007475726E20E0
:10168E006F6E2066616E007475726E206F666620D6
:10169E0066616E007475726E206F6E20616C6C00E8
:0E16AE007475726E206F666620616C6C0000B1
:00000001FF
